{
  "_format": "hh-sol-artifact-1",
  "contractName": "FaucetToken",
  "sourceName": "contracts/Token.sol",
  "abi": [
    {
      "inputs": [
        {
          "internalType": "address",
          "name": "_minter",
          "type": "address"
        }
      ],
      "stateMutability": "nonpayable",
      "type": "constructor"
    },
    {
      "inputs": [
        {
          "internalType": "address",
          "name": "spender",
          "type": "address"
        },
        {
          "internalType": "uint256",
          "name": "allowance",
          "type": "uint256"
        },
        {
          "internalType": "uint256",
          "name": "needed",
          "type": "uint256"
        }
      ],
      "name": "ERC20InsufficientAllowance",
      "type": "error"
    },
    {
      "inputs": [
        {
          "internalType": "address",
          "name": "sender",
          "type": "address"
        },
        {
          "internalType": "uint256",
          "name": "balance",
          "type": "uint256"
        },
        {
          "internalType": "uint256",
          "name": "needed",
          "type": "uint256"
        }
      ],
      "name": "ERC20InsufficientBalance",
      "type": "error"
    },
    {
      "inputs": [
        {
          "internalType": "address",
          "name": "approver",
          "type": "address"
        }
      ],
      "name": "ERC20InvalidApprover",
      "type": "error"
    },
    {
      "inputs": [
        {
          "internalType": "address",
          "name": "receiver",
          "type": "address"
        }
      ],
      "name": "ERC20InvalidReceiver",
      "type": "error"
    },
    {
      "inputs": [
        {
          "internalType": "address",
          "name": "sender",
          "type": "address"
        }
      ],
      "name": "ERC20InvalidSender",
      "type": "error"
    },
    {
      "inputs": [
        {
          "internalType": "address",
          "name": "spender",
          "type": "address"
        }
      ],
      "name": "ERC20InvalidSpender",
      "type": "error"
    },
    {
      "anonymous": false,
      "inputs": [
        {
          "indexed": true,
          "internalType": "address",
          "name": "owner",
          "type": "address"
        },
        {
          "indexed": true,
          "internalType": "address",
          "name": "spender",
          "type": "address"
        },
        {
          "indexed": false,
          "internalType": "uint256",
          "name": "value",
          "type": "uint256"
        }
      ],
      "name": "Approval",
      "type": "event"
    },
    {
      "anonymous": false,
      "inputs": [
        {
          "indexed": true,
          "internalType": "address",
          "name": "from",
          "type": "address"
        },
        {
          "indexed": true,
          "internalType": "address",
          "name": "to",
          "type": "address"
        },
        {
          "indexed": false,
          "internalType": "uint256",
          "name": "value",
          "type": "uint256"
        }
      ],
      "name": "Transfer",
      "type": "event"
    },
    {
      "inputs": [],
      "name": "MAX_SUPPLY",
      "outputs": [
        {
          "internalType": "uint256",
          "name": "",
          "type": "uint256"
        }
      ],
      "stateMutability": "view",
      "type": "function"
    },
    {
      "inputs": [
        {
          "internalType": "address",
          "name": "owner",
          "type": "address"
        },
        {
          "internalType": "address",
          "name": "spender",
          "type": "address"
        }
      ],
      "name": "allowance",
      "outputs": [
        {
          "internalType": "uint256",
          "name": "",
          "type": "uint256"
        }
      ],
      "stateMutability": "view",
      "type": "function"
    },
    {
      "inputs": [
        {
          "internalType": "address",
          "name": "spender",
          "type": "address"
        },
        {
          "internalType": "uint256",
          "name": "value",
          "type": "uint256"
        }
      ],
      "name": "approve",
      "outputs": [
        {
          "internalType": "bool",
          "name": "",
          "type": "bool"
        }
      ],
      "stateMutability": "nonpayable",
      "type": "function"
    },
    {
      "inputs": [
        {
          "internalType": "address",
          "name": "account",
          "type": "address"
        }
      ],
      "name": "balanceOf",
      "outputs": [
        {
          "internalType": "uint256",
          "name": "",
          "type": "uint256"
        }
      ],
      "stateMutability": "view",
      "type": "function"
    },
    {
      "inputs": [],
      "name": "decimals",
      "outputs": [
        {
          "internalType": "uint8",
          "name": "",
          "type": "uint8"
        }
      ],
      "stateMutability": "view",
      "type": "function"
    },
    {
      "inputs": [
        {
          "internalType": "address",
          "name": "to",
          "type": "address"
        },
        {
          "internalType": "uint256",
          "name": "amount",
          "type": "uint256"
        }
      ],
      "name": "mint",
      "outputs": [],
      "stateMutability": "nonpayable",
      "type": "function"
    },
    {
      "inputs": [],
      "name": "minter",
      "outputs": [
        {
          "internalType": "address",
          "name": "",
          "type": "address"
        }
      ],
      "stateMutability": "view",
      "type": "function"
    },
    {
      "inputs": [],
      "name": "name",
      "outputs": [
        {
          "internalType": "string",
          "name": "",
          "type": "string"
        }
      ],
      "stateMutability": "view",
      "type": "function"
    },
    {
      "inputs": [],
      "name": "symbol",
      "outputs": [
        {
          "internalType": "string",
          "name": "",
          "type": "string"
        }
      ],
      "stateMutability": "view",
      "type": "function"
    },
    {
      "inputs": [],
      "name": "totalSupply",
      "outputs": [
        {
          "internalType": "uint256",
          "name": "",
          "type": "uint256"
        }
      ],
      "stateMutability": "view",
      "type": "function"
    },
    {
      "inputs": [
        {
          "internalType": "address",
          "name": "to",
          "type": "address"
        },
        {
          "internalType": "uint256",
          "name": "value",
          "type": "uint256"
        }
      ],
      "name": "transfer",
      "outputs": [
        {
          "internalType": "bool",
          "name": "",
          "type": "bool"
        }
      ],
      "stateMutability": "nonpayable",
      "type": "function"
    },
    {
      "inputs": [
        {
          "internalType": "address",
          "name": "from",
          "type": "address"
        },
        {
          "internalType": "address",
          "name": "to",
          "type": "address"
        },
        {
          "internalType": "uint256",
          "name": "value",
          "type": "uint256"
        }
      ],
      "name": "transferFrom",
      "outputs": [
        {
          "internalType": "bool",
          "name": "",
          "type": "bool"
        }
      ],
      "stateMutability": "nonpayable",
      "type": "function"
    }
  ],
  "bytecode": "0x60806040523480156200001157600080fd5b50604051620016783803806200167883398181016040528101906200003791906200017b565b6040518060400160405280600c81526020017f46617563657420546f6b656e00000000000000000000000000000000000000008152506040518060400160405280600381526020017f46544b00000000000000000000000000000000000000000000000000000000008152508160039081620000b4919062000427565b508060049081620000c6919062000427565b50505080600560006101000a81548173ffffffffffffffffffffffffffffffffffffffff021916908373ffffffffffffffffffffffffffffffffffffffff160217905550506200050e565b600080fd5b600073ffffffffffffffffffffffffffffffffffffffff82169050919050565b6000620001438262000116565b9050919050565b620001558162000136565b81146200016157600080fd5b50565b60008151905062000175816200014a565b92915050565b60006020828403121562000194576200019362000111565b5b6000620001a48482850162000164565b91505092915050565b600081519050919050565b7f4e487b7100000000000000000000000000000000000000000000000000000000600052604160045260246000fd5b7f4e487b7100000000000000000000000000000000000000000000000000000000600052602260045260246000fd5b600060028204905060018216806200022f57607f821691505b602082108103620002455762000244620001e7565b5b50919050565b60008190508160005260206000209050919050565b60006020601f8301049050919050565b600082821b905092915050565b600060088302620002af7fffffffffffffffffffffffffffffffffffffffffffffffffffffffffffffffff8262000270565b620002bb868362000270565b95508019841693508086168417925050509392505050565b6000819050919050565b6000819050919050565b60006200030862000302620002fc84620002d3565b620002dd565b620002d3565b9050919050565b6000819050919050565b6200032483620002e7565b6200033c62000333826200030f565b8484546200027d565b825550505050565b600090565b6200035362000344565b6200036081848462000319565b505050565b5b8181101562000388576200037c60008262000349565b60018101905062000366565b5050565b601f821115620003d757620003a1816200024b565b620003ac8462000260565b81016020851015620003bc578190505b620003d4620003cb8562000260565b83018262000365565b50505b505050565b600082821c905092915050565b6000620003fc60001984600802620003dc565b1980831691505092915050565b6000620004178383620003e9565b9150826002028217905092915050565b6200043282620001ad565b67ffffffffffffffff8111156200044e576200044d620001b8565b5b6200045a825462000216565b620004678282856200038c565b600060209050601f8311600181146200049f57600084156200048a578287015190505b62000496858262000409565b86555062000506565b601f198416620004af866200024b565b60005b82811015620004d957848901518255600182019150602085019450602081019050620004b2565b86831015620004f95784890151620004f5601f891682620003e9565b8355505b6001600288020188555050505b505050505050565b61115a806200051e6000396000f3fe608060405234801561001057600080fd5b50600436106100b45760003560e01c806332cb6b0c1161007157806332cb6b0c1461019157806340c10f19146101af57806370a08231146101cb57806395d89b41146101fb578063a9059cbb14610219578063dd62ed3e14610249576100b4565b806306fdde03146100b957806307546172146100d7578063095ea7b3146100f557806318160ddd1461012557806323b872dd14610143578063313ce56714610173575b600080fd5b6100c1610279565b6040516100ce9190610cd6565b60405180910390f35b6100df61030b565b6040516100ec9190610d39565b60405180910390f35b61010f600480360381019061010a9190610dbb565b610331565b60405161011c9190610e16565b60405180910390f35b61012d610354565b60405161013a9190610e40565b60405180910390f35b61015d60048036038101906101589190610e5b565b61035e565b60405161016a9190610e16565b60405180910390f35b61017b61038d565b6040516101889190610eca565b60405180910390f35b610199610396565b6040516101a69190610e40565b60405180910390f35b6101c960048036038101906101c49190610dbb565b6103a4565b005b6101e560048036038101906101e09190610ee5565b6104a1565b6040516101f29190610e40565b60405180910390f35b6102036104e9565b6040516102109190610cd6565b60405180910390f35b610233600480360381019061022e9190610dbb565b61057b565b6040516102409190610e16565b60405180910390f35b610263600480360381019061025e9190610f12565b61059e565b6040516102709190610e40565b60405180910390f35b60606003805461028890610f81565b80601f01602080910402602001604051908101604052809291908181526020018280546102b490610f81565b80156103015780601f106102d657610100808354040283529160200191610301565b820191906000526020600020905b8154815290600101906020018083116102e457829003601f168201915b5050505050905090565b600560009054906101000a900473ffffffffffffffffffffffffffffffffffffffff1681565b60008061033c610625565b905061034981858561062d565b600191505092915050565b6000600254905090565b600080610369610625565b905061037685828561063f565b6103818585856106d4565b60019150509392505050565b60006012905090565b69d3c21bcecceda100000081565b600560009054906101000a900473ffffffffffffffffffffffffffffffffffffffff1673ffffffffffffffffffffffffffffffffffffffff163373ffffffffffffffffffffffffffffffffffffffff1614610434576040517f08c379a000000000000000000000000000000000000000000000000000000000815260040161042b90610ffe565b60405180910390fd5b69d3c21bcecceda100000081610448610354565b610452919061104d565b1115610493576040517f08c379a000000000000000000000000000000000000000000000000000000000815260040161048a906110cd565b60405180910390fd5b61049d82826107c8565b5050565b60008060008373ffffffffffffffffffffffffffffffffffffffff1673ffffffffffffffffffffffffffffffffffffffff168152602001908152602001600020549050919050565b6060600480546104f890610f81565b80601f016020809104026020016040519081016040528092919081815260200182805461052490610f81565b80156105715780601f1061054657610100808354040283529160200191610571565b820191906000526020600020905b81548152906001019060200180831161055457829003601f168201915b5050505050905090565b600080610586610625565b90506105938185856106d4565b600191505092915050565b6000600160008473ffffffffffffffffffffffffffffffffffffffff1673ffffffffffffffffffffffffffffffffffffffff16815260200190815260200160002060008373ffffffffffffffffffffffffffffffffffffffff1673ffffffffffffffffffffffffffffffffffffffff16815260200190815260200160002054905092915050565b600033905090565b61063a838383600161084a565b505050565b600061064b848461059e565b90507fffffffffffffffffffffffffffffffffffffffffffffffffffffffffffffffff8110156106ce57818110156106be578281836040517ffb8f41b20000000000000000000000000000000000000000000000000000000081526004016106b5939291906110ed565b60405180910390fd5b6106cd8484848403600061084a565b5b50505050565b600073ffffffffffffffffffffffffffffffffffffffff168373ffffffffffffffffffffffffffffffffffffffff16036107465760006040517f96c6fd1e00000000000000000000000000000000000000000000000000000000815260040161073d9190610d39565b60405180910390fd5b600073ffffffffffffffffffffffffffffffffffffffff168273ffffffffffffffffffffffffffffffffffffffff16036107b85760006040517fec442f050000000000000000000000000000000000000000000000000000000081526004016107af9190610d39565b60405180910390fd5b6107c3838383610a21565b505050565b600073ffffffffffffffffffffffffffffffffffffffff168273ffffffffffffffffffffffffffffffffffffffff160361083a5760006040517fec442f050000000000000000000000000000000000000000000000000000000081526004016108319190610d39565b60405180910390fd5b61084660008383610a21565b5050565b600073ffffffffffffffffffffffffffffffffffffffff168473ffffffffffffffffffffffffffffffffffffffff16036108bc5760006040517fe602df050000000000000000000000000000000000000000000000000000000081526004016108b39190610d39565b60405180910390fd5b600073ffffffffffffffffffffffffffffffffffffffff168373ffffffffffffffffffffffffffffffffffffffff160361092e5760006040517f94280d620000000000000000000000000000000000000000000000000000000081526004016109259190610d39565b60405180910390fd5b81600160008673ffffffffffffffffffffffffffffffffffffffff1673ffffffffffffffffffffffffffffffffffffffff16815260200190815260200160002060008573ffffffffffffffffffffffffffffffffffffffff1673ffffffffffffffffffffffffffffffffffffffff168152602001908152602001600020819055508015610a1b578273ffffffffffffffffffffffffffffffffffffffff168473ffffffffffffffffffffffffffffffffffffffff167f8c5be1e5ebec7d5bd14f71427d1e84f3dd0314c0f7b2291e5b200ac8c7c3b92584604051610a129190610e40565b60405180910390a35b50505050565b600073ffffffffffffffffffffffffffffffffffffffff168373ffffffffffffffffffffffffffffffffffffffff1603610a73578060026000828254610a67919061104d565b92505081905550610b46565b60008060008573ffffffffffffffffffffffffffffffffffffffff1673ffffffffffffffffffffffffffffffffffffffff16815260200190815260200160002054905081811015610aff578381836040517fe450d38c000000000000000000000000000000000000000000000000000000008152600401610af6939291906110ed565b60405180910390fd5b8181036000808673ffffffffffffffffffffffffffffffffffffffff1673ffffffffffffffffffffffffffffffffffffffff16815260200190815260200160002081905550505b600073ffffffffffffffffffffffffffffffffffffffff168273ffffffffffffffffffffffffffffffffffffffff1603610b8f5780600260008282540392505081905550610bdc565b806000808473ffffffffffffffffffffffffffffffffffffffff1673ffffffffffffffffffffffffffffffffffffffff168152602001908152602001600020600082825401925050819055505b8173ffffffffffffffffffffffffffffffffffffffff168373ffffffffffffffffffffffffffffffffffffffff167fddf252ad1be2c89b69c2b068fc378daa952ba7f163c4a11628f55a4df523b3ef83604051610c399190610e40565b60405180910390a3505050565b600081519050919050565b600082825260208201905092915050565b60005b83811015610c80578082015181840152602081019050610c65565b60008484015250505050565b6000601f19601f8301169050919050565b6000610ca882610c46565b610cb28185610c51565b9350610cc2818560208601610c62565b610ccb81610c8c565b840191505092915050565b60006020820190508181036000830152610cf08184610c9d565b905092915050565b600073ffffffffffffffffffffffffffffffffffffffff82169050919050565b6000610d2382610cf8565b9050919050565b610d3381610d18565b82525050565b6000602082019050610d4e6000830184610d2a565b92915050565b600080fd5b610d6281610d18565b8114610d6d57600080fd5b50565b600081359050610d7f81610d59565b92915050565b6000819050919050565b610d9881610d85565b8114610da357600080fd5b50565b600081359050610db581610d8f565b92915050565b60008060408385031215610dd257610dd1610d54565b5b6000610de085828601610d70565b9250506020610df185828601610da6565b9150509250929050565b60008115159050919050565b610e1081610dfb565b82525050565b6000602082019050610e2b6000830184610e07565b92915050565b610e3a81610d85565b82525050565b6000602082019050610e556000830184610e31565b92915050565b600080600060608486031215610e7457610e73610d54565b5b6000610e8286828701610d70565b9350506020610e9386828701610d70565b9250506040610ea486828701610da6565b9150509250925092565b600060ff82169050919050565b610ec481610eae565b82525050565b6000602082019050610edf6000830184610ebb565b92915050565b600060208284031215610efb57610efa610d54565b5b6000610f0984828501610d70565b91505092915050565b60008060408385031215610f2957610f28610d54565b5b6000610f3785828601610d70565b9250506020610f4885828601610d70565b9150509250929050565b7f4e487b7100000000000000000000000000000000000000000000000000000000600052602260045260246000fd5b60006002820490506001821680610f9957607f821691505b602082108103610fac57610fab610f52565b5b50919050565b7f4e6f7420617574686f72697a6564206d696e7465720000000000000000000000600082015250565b6000610fe8601583610c51565b9150610ff382610fb2565b602082019050919050565b6000602082019050818103600083015261101781610fdb565b9050919050565b7f4e487b7100000000000000000000000000000000000000000000000000000000600052601160045260246000fd5b600061105882610d85565b915061106383610d85565b925082820190508082111561107b5761107a61101e565b5b92915050565b7f4d617820737570706c7920657863656564656400000000000000000000000000600082015250565b60006110b7601383610c51565b91506110c282611081565b602082019050919050565b600060208201905081810360008301526110e6816110aa565b9050919050565b60006060820190506111026000830186610d2a565b61110f6020830185610e31565b61111c6040830184610e31565b94935050505056fea2646970667358221220c6b8f146055ccab490a6e3a8966a27640e0cb2e12f4055016e53a7ac5ba4666764736f6c63430008140033",
  "linkReferences": {},
  "deployedLinkReferences": {}
}